{
  "address": "0x18a52a0D750df11b3B0221dEf7A047dC456883C3",
  "abi": [
    {
      "inputs": [
        {
          "internalType": "uint256",
          "name": "id",
          "type": "uint256"
        },
        {
          "internalType": "address",
          "name": "connectGelatoProviderPayment",
          "type": "address"
        }
      ],
      "stateMutability": "nonpayable",
      "type": "constructor"
    },
    {
      "inputs": [],
      "name": "connectorID",
      "outputs": [
        {
          "internalType": "uint256",
          "name": "_type",
          "type": "uint256"
        },
        {
          "internalType": "uint256",
          "name": "id",
          "type": "uint256"
        }
      ],
      "stateMutability": "view",
      "type": "function"
    },
    {
      "inputs": [
        {
          "internalType": "uint256",
          "name": "_vaultId",
          "type": "uint256"
        },
        {
          "internalType": "address",
          "name": "_colToken",
          "type": "address"
        }
      ],
      "name": "getDataAndCastMakerToCompound",
      "outputs": [],
      "stateMutability": "payable",
      "type": "function"
    },
    {
      "inputs": [
        {
          "internalType": "uint256",
          "name": "_vaultAId",
          "type": "uint256"
        },
        {
          "internalType": "uint256",
          "name": "_vaultBId",
          "type": "uint256"
        },
        {
          "internalType": "address",
          "name": "_colToken",
          "type": "address"
        },
        {
          "internalType": "string",
          "name": "_colType",
          "type": "string"
        }
      ],
      "name": "getDataAndCastMakerToMaker",
      "outputs": [],
      "stateMutability": "payable",
      "type": "function"
    },
    {
      "inputs": [],
      "name": "name",
      "outputs": [
        {
          "internalType": "string",
          "name": "",
          "type": "string"
        }
      ],
      "stateMutability": "view",
      "type": "function"
    }
  ],
  "transactionHash": "0x03b5bfeb7cc4daa4caeb7fd6c8db63d261101f85dcd8176bc413ee9cde08f7f8",
  "args": [
    "52",
    "0xD6d097EbEb8ffab4C5e27e1d5306c2023752A7DC"
  ],
  "solcInputHash": "89383a6e8e4256890d851f32690baa57",
  "bytecode": "0x60c060405234801561001057600080fd5b5060405162002306380380620023068339810160408190526100319161004c565b60809190915260601b6001600160601b03191660a052610087565b6000806040838503121561005e578182fd5b825160208401519092506001600160a01b038116811461007c578182fd5b809150509250929050565b60805160a05160601c61224e620000b8600039806105e95280610edb528061120e525080610123525061224e6000f3fe60806040526004361061003f5760003560e01c806306fdde031461004457806345c4b9b51461006f578063e588576e14610084578063eb15f78114610097575b600080fd5b34801561005057600080fd5b506100596100ba565b60405161006691906120ce565b60405180910390f35b61008261007d366004611ea7565b6100d6565b005b610082610092366004611e7c565b6100fd565b3480156100a357600080fd5b506100ac61011e565b60405161006692919061218c565b6040518060600160405280602881526020016121c76028913981565b6060806100e68787878787610145565b915091506100f48282610316565b50505050505050565b60608061010a84846103fa565b915091506101188282610316565b50505050565b6001907f000000000000000000000000000000000000000000000000000000000000000090565b60408051600180825281830190925260609182919060208083019080368337019050509150733150e5a805577366816a1ddc7330c6ea17070c058260008151811061018c57fe5b60200260200101906001600160a01b031690816001600160a01b03168152505060006101bf6101ba8961088e565b610af3565b905060006101cc89610b0f565b905060006101ee736b175474e89094c44da98b954eedeac495271d0f84610c30565b905060006101fd8a1583610d42565b9050600061020a82610d98565b90506060808c15610228576102238e8e8e8a8a88610dab565b610237565b6102378e8d8d8d8b8b8961109b565b604080516001808252818301909252929450909250816020015b6060815260200190600190039081610251579050509750638d0a9b1b60e01b736b175474e89094c44da98b954eedeac495271d0f8887858560405160200161029a929190612062565b60408051601f19818403018152908290526102ba9493929160240161202b565b604051602081830303815290604052906001600160e01b0319166020820180516001600160e01b038381831617835250505050886000815181106102fa57fe5b6020026020010181905250505050505050509550959350505050565b606063e0e90acf60e01b83833360405160240161033593929190612090565b604051602081830303815290604052906001600160e01b0319166020820180516001600160e01b038381831617835250505050905060006060306001600160a01b0316836040516103869190611ffb565b600060405180830381855af49150503d80600081146103c1576040519150601f19603f3d011682016040523d82523d6000602084013e6103c6565b606091505b5091509150816103f3576103f36040518060600160405280602a81526020016121ef602a91398290611420565b5050505050565b60408051600180825281830190925260609182919060208083019080368337019050509150733150e5a805577366816a1ddc7330c6ea17070c058260008151811061044157fe5b60200260200101906001600160a01b031690816001600160a01b031681525050600061046f6101ba8661088e565b9050600061047c86610b0f565b9050600061049e736b175474e89094c44da98b954eedeac495271d0f84610c30565b905060006104ab8261170f565b905060006104b882610d98565b60408051600680825260e08201909252919250606091906020820160c08036833701905050905073ac02030d8a8f49ed04b2f52c394d3f901a10f8a98160008151811061050157fe5b60200260200101906001600160a01b031690816001600160a01b03168152505073ac02030d8a8f49ed04b2f52c394d3f901a10f8a98160018151811061054357fe5b60200260200101906001600160a01b031690816001600160a01b0316815250507307f81230d73a78f63f0c2a3403ad281b067d28f88160028151811061058557fe5b60200260200101906001600160a01b031690816001600160a01b0316815250507307f81230d73a78f63f0c2a3403ad281b067d28f8816003815181106105c757fe5b60200260200101906001600160a01b031690816001600160a01b0316815250507f00000000000000000000000000000000000000000000000000000000000000008160048151811061061557fe5b60200260200101906001600160a01b031690816001600160a01b031681525050733150e5a805577366816a1ddc7330c6ea17070c058160058151811061065757fe5b6001600160a01b03929092166020928302919091019091015260408051600680825260e08201909252606091816020015b60608152602001906001900390816106885790505090506106b08b6000196000610258611738565b816000815181106106bd57fe5b60200260200101819052506106d78b60001960008061178d565b816001815181106106e457fe5b60200260200101819052506107058a6106fd88866117e2565b600080611832565b8160028151811061071257fe5b6020026020010181905250610741736b175474e89094c44da98b954eedeac495271d0f6000610258600061188f565b8160038151811061074e57fe5b60200260200101819052506107668a846000806118ec565b8160048151811061077357fe5b602002602001018190525061079f736b175474e89094c44da98b954eedeac495271d0f88600080611949565b816005815181106107ac57fe5b602090810291909101015260408051600180825281830190925290816020015b60608152602001906001900390816107cc579050509750638d0a9b1b60e01b736b175474e89094c44da98b954eedeac495271d0f88878585604051602001610815929190612062565b60408051601f19818403018152908290526108359493929160240161202b565b604051602081830303815290604052906001600160e01b0319166020820180516001600160e01b0383818316178352505050508860008151811061087557fe5b6020026020010181905250505050505050509250929050565b6000735ef30b9986345249bc32d8928b7ee64de9435e3981806108b183866119a6565b915091506000836001600160a01b03166336569e776040518163ffffffff1660e01b815260040160206040518083038186803b1580156108f057600080fd5b505afa158015610904573d6000803e3d6000fd5b505050506040513d602081101561091a57600080fd5b505160408051636cb1c69b60e11b81526004810186905290519192506000916001600160a01b0384169163d9638d369160248083019260a0929190829003018186803b15801561096957600080fd5b505afa15801561097d573d6000803e3d6000fd5b505050506040513d60a081101561099357600080fd5b5060200151604080516309092f9760e21b8152600481018790526001600160a01b038681166024830152825193945060009390861692632424be5c9260448082019391829003018186803b1580156109ea57600080fd5b505afa1580156109fe573d6000803e3d6000fd5b505050506040513d6040811015610a1457600080fd5b5060209081015160408051633612d9a360e11b81526001600160a01b038881166004830152915192945060009391871692636c25b34692602480840193919291829003018186803b158015610a6857600080fd5b505afa158015610a7c573d6000803e3d6000fd5b505050506040513d6020811015610a9257600080fd5b505190506000610aab610aa58486611a9b565b836117e2565b90506b033b2e3c9fd0803ce80000008104985080610ad58a6b033b2e3c9fd0803ce8000000611a9b565b10610ae05788610ae5565b886001015b9a9950505050505050505050565b6000610b0782670df27a2cdf448000611afe565b90505b919050565b600080735ef30b9986345249bc32d8928b7ee64de9435e3990506000816001600160a01b03166336569e776040518163ffffffff1660e01b815260040160206040518083038186803b158015610b6457600080fd5b505afa158015610b78573d6000803e3d6000fd5b505050506040513d6020811015610b8e57600080fd5b50519050600080610b9f84876119a6565b915091506000836001600160a01b0316632424be5c84846040518363ffffffff1660e01b815260040180838152602001826001600160a01b0316815260200192505050604080518083038186803b158015610bf957600080fd5b505afa158015610c0d573d6000803e3d6000fd5b505050506040513d6040811015610c2357600080fd5b5051979650505050505050565b6000610c3a611dc0565b604051635a860c8760e01b815273a004a5afba04b74037e9e52ba1f7eb02b5e6150990635a860c8790610c71908790600401612017565b60806040518083038186803b158015610c8957600080fd5b505afa158015610c9d573d6000803e3d6000fd5b505050506040513d601f19601f82011682018060405250810190610cc19190611e1d565b90508281600001511115610cd9576000915050610d3c565b8281602001511115610cef576001915050610d3c565b8281604001511115610d05576002915050610d3c565b8281606001511115610d1b576003915050610d3c565b60405162461bcd60e51b8152600401610d339061213e565b60405180910390fd5b92915050565b6000610d4d82611b33565b82610d6f57610d5a611b57565b8260048110610d6557fe5b6020020151610d91565b610d91610d7a611b57565b8360048110610d8557fe5b60200201516000611b91565b9392505050565b6000610b0782610da6611be0565b611a9b565b60408051600680825260e082019092526060918291906020820160c08036833701905050915073ac02030d8a8f49ed04b2f52c394d3f901a10f8a982600081518110610df357fe5b60200260200101906001600160a01b031690816001600160a01b03168152505073ac02030d8a8f49ed04b2f52c394d3f901a10f8a982600181518110610e3557fe5b60200260200101906001600160a01b031690816001600160a01b03168152505073ac02030d8a8f49ed04b2f52c394d3f901a10f8a982600281518110610e7757fe5b60200260200101906001600160a01b031690816001600160a01b03168152505073ac02030d8a8f49ed04b2f52c394d3f901a10f8a982600381518110610eb957fe5b60200260200101906001600160a01b031690816001600160a01b0316815250507f000000000000000000000000000000000000000000000000000000000000000082600481518110610f0757fe5b60200260200101906001600160a01b031690816001600160a01b031681525050733150e5a805577366816a1ddc7330c6ea17070c0582600581518110610f4957fe5b6001600160a01b039290921660209283029190910182015260408051600680825260e082019092529182015b6060815260200190600190039081610f75579050509050610f9d886000196000610258611738565b81600081518110610faa57fe5b6020026020010181905250610fc48860001960008061178d565b81600181518110610fd157fe5b6020026020010181905250610ff287610fea86866117e2565b600080611c60565b81600281518110610fff57fe5b602002602001018190525061101a8760006102586000611cb5565b8160038151811061102757fe5b602002602001018190525061103f86846000806118ec565b8160048151811061104c57fe5b6020026020010181905250611078736b175474e89094c44da98b954eedeac495271d0f86600080611949565b8160058151811061108557fe5b6020026020010181905250965096945050505050565b60408051600780825261010082019092526060918291906020820160e08036833701905050915073ac02030d8a8f49ed04b2f52c394d3f901a10f8a9826000815181106110e457fe5b60200260200101906001600160a01b031690816001600160a01b03168152505073ac02030d8a8f49ed04b2f52c394d3f901a10f8a98260018151811061112657fe5b60200260200101906001600160a01b031690816001600160a01b03168152505073ac02030d8a8f49ed04b2f52c394d3f901a10f8a98260028151811061116857fe5b60200260200101906001600160a01b031690816001600160a01b03168152505073ac02030d8a8f49ed04b2f52c394d3f901a10f8a9826003815181106111aa57fe5b60200260200101906001600160a01b031690816001600160a01b03168152505073ac02030d8a8f49ed04b2f52c394d3f901a10f8a9826004815181106111ec57fe5b60200260200101906001600160a01b031690816001600160a01b0316815250507f00000000000000000000000000000000000000000000000000000000000000008260058151811061123a57fe5b60200260200101906001600160a01b031690816001600160a01b031681525050733150e5a805577366816a1ddc7330c6ea17070c058260068151811061127c57fe5b6001600160a01b039290921660209283029190910182015260408051600780825261010082019092529182015b60608152602001906001900390816112a95790505090506112d1896000196000610258611738565b816000815181106112de57fe5b60200260200101819052506112f88960001960008061178d565b8160018151811061130557fe5b602002602001018190525061134f87878080601f016020809104026020016040519081016040528093929190818152602001838380828437600092019190915250611d0a92505050565b8160028151811061135c57fe5b60200260200101819052506113766000610fea86866117e2565b8160038151811061138357fe5b602002602001018190525061139e6000806102586000611cb5565b816004815181106113ab57fe5b60200260200101819052506113c388846000806118ec565b816005815181106113d057fe5b60200260200101819052506113fc736b175474e89094c44da98b954eedeac495271d0f86600080611949565b8160068151811061140957fe5b602002602001018190525097509795505050505050565b602082518161142b57fe5b066004141561164857602082015162461bcd60e51b6001600160e01b0319821614156115865760448301925081836040516020018083805190602001908083835b6020831061148b5780518252601f19909201916020918201910161146c565b51815160209384036101000a600019018019909216911617905285519190930192850191508083835b602083106114d35780518252601f1990920191602091820191016114b4565b51815160209384036101000a60001901801990921691161790526040805192909401828103601f190183529384905262461bcd60e51b84526004840181815282516024860152825192975095508594506044909301928601915080838360005b8381101561154b578181015183820152602001611533565b50505050905090810190601f1680156115785780820380516001836020036101000a031916815260200191505b509250505060405180910390fd5b816040516020018082805190602001908083835b602083106115b95780518252601f19909201916020918201910161159a565b51815160001960209485036101000a0190811690199091161790526e2737a2b93937b929b2b632b1ba37b960891b9390910192835260408051601019818603018152600f85019182905262461bcd60e51b90915260138401828152815160338601528151919650945084936053019250908501908083836000831561154b578181015183820152602001611533565b806040516020018082805190602001908083835b6020831061167b5780518252601f19909201916020918201910161165c565b51815160001960209485036101000a01908116901990911617905273556e657870656374656452657475726e6461746160601b9390910192835260408051600b19818603018152601485019182905262461bcd60e51b90915260188401828152815160388601528151919650945084936058019250908501908083836000831561154b578181015183820152602001611533565b600061171a82611b33565b611722611b57565b826004811061172d57fe5b602002015192915050565b6040805160248101869052604481018590526064810184905260848082018490528251808303909101815260a49091019091526020810180516001600160e01b0316636af06d1b60e11b179052949350505050565b6040805160248101869052604481018590526064810184905260848082018490528251808303909101815260a49091019091526020810180516001600160e01b03166319d3ec6d60e21b179052949350505050565b80820382811115610d3c576040805162461bcd60e51b815260206004820152601560248201527464732d6d6174682d7375622d756e646572666c6f7760581b604482015290519081900360640190fd5b604080516001600160a01b0386166024820152604481018590526064810184905260848082018490528251808303909101815260a49091019091526020810180516001600160e01b031663ce88b43960e01b179052949350505050565b604080516001600160a01b0386166024820152604481018590526064810184905260848082018490528251808303909101815260a49091019091526020810180516001600160e01b0316631c5d526160e11b179052949350505050565b604080516001600160a01b0386166024820152604481018590526064810184905260848082018490528251808303909101815260a49091019091526020810180516001600160e01b0316631b5dd97960e21b179052949350505050565b604080516001600160a01b0386166024820152604481018590526064810184905260848082018490528251808303909101815260a49091019091526020810180516001600160e01b0316630427301d60e31b179052949350505050565b600080836001600160a01b0316632c2cb9fd846040518263ffffffff1660e01b81526004018082815260200191505060206040518083038186803b1580156119ed57600080fd5b505afa158015611a01573d6000803e3d6000fd5b505050506040513d6020811015611a1757600080fd5b505160408051632726b07360e01b81526004810186905290519193506001600160a01b03861691632726b07391602480820192602092909190829003018186803b158015611a6457600080fd5b505afa158015611a78573d6000803e3d6000fd5b505050506040513d6020811015611a8e57600080fd5b5051919491935090915050565b6000811580611ab657505080820282828281611ab357fe5b04145b610d3c576040805162461bcd60e51b815260206004820152601460248201527364732d6d6174682d6d756c2d6f766572666c6f7760601b604482015290519081900360640190fd5b6000670de0b6b3a7640000611b24611b168585611a9b565b6706f05b59d3b20000611b91565b81611b2b57fe5b049392505050565b6004811115611b545760405162461bcd60e51b8152600401610d33906120e1565b50565b611b5f611de8565b604051806080016040528062266fd88152602001622feb948152602001623c97b8815260200162424ca8815250905090565b80820182811015610d3c576040805162461bcd60e51b815260206004820152601460248201527364732d6d6174682d6164642d6f766572666c6f7760601b604482015290519081900360640190fd5b600073169e633a2d1e6c10dd91238ba11c4a708dfef37c6001600160a01b03166350d25bcd6040518163ffffffff1660e01b815260040160206040518083038186803b158015611c2f57600080fd5b505afa158015611c43573d6000803e3d6000fd5b505050506040513d6020811015611c5957600080fd5b5051905090565b6040805160248101869052604481018590526064810184905260848082018490528251808303909101815260a49091019091526020810180516001600160e01b0316632505c3d960e01b179052949350505050565b6040805160248101869052604481018590526064810184905260848082018490528251808303909101815260a49091019091526020810180516001600160e01b031663088eca4160e11b179052949350505050565b60405160206024820181815283516044840152835160609363e4dcb06b60e01b9386939283926064019185019080838360005b83811015611d55578181015183820152602001611d3d565b50505050905090810190601f168015611d825780820380516001836020036101000a031916815260200191505b5060408051601f198184030181529190526020810180516001600160e01b03166001600160e01b031990961695909517909452509192505050919050565b6040518060800160405280600081526020016000815260200160008152602001600081525090565b60405180608001604052806004906020820280368337509192915050565b80356001600160a01b0381168114610b0a57600080fd5b600060808284031215611e2e578081fd5b6040516080810181811067ffffffffffffffff82111715611e4b57fe5b8060405250825181526020830151602082015260408301516040820152606083015160608201528091505092915050565b60008060408385031215611e8e578081fd5b82359150611e9e60208401611e06565b90509250929050565b600080600080600060808688031215611ebe578081fd5b8535945060208601359350611ed560408701611e06565b9250606086013567ffffffffffffffff80821115611ef1578283fd5b818801915088601f830112611f04578283fd5b813581811115611f12578384fd5b896020828501011115611f23578384fd5b9699959850939650602001949392505050565b6000815180845260208085019450808401835b83811015611f6e5781516001600160a01b031687529582019590820190600101611f49565b509495945050505050565b60008282518085526020808601955080818302840101818601855b84811015611fc257601f19868403018952611fb0838351611fcf565b98840198925090830190600101611f94565b5090979650505050505050565b60008151808452611fe781602086016020860161219a565b601f01601f19169290920160200192915050565b6000825161200d81846020870161219a565b9190910192915050565b6001600160a01b0391909116815260200190565b600060018060a01b0386168252846020830152836040830152608060608301526120586080830184611fcf565b9695505050505050565b6000604082526120756040830185611f36565b82810360208401526120878185611f79565b95945050505050565b6000606082526120a36060830186611f36565b82810360208401526120b58186611f79565b91505060018060a01b0383166040830152949350505050565b600060208252610d916020830184611fcf565b6020808252603e908201527f4647656c61746f446562744272696467652e5f676574476173436f73744d616b60408201527f6572546f4d616b65723a20696e76616c696420726f75746520696e6465780000606082015260800190565b6020808252602e908201527f4647656c61746f446562744272696467652e5f676574466c6173684c6f616e5260408201526d1bdd5d194e881a5b1b1a5c5d5a5960921b606082015260800190565b918252602082015260400190565b60005b838110156121b557818101518382015260200161219d565b83811115610118575050600091015256fe436f6e6e65637447656c61746f4461746146756c6c526566696e616e63654d616b65722d76312e30436f6e6e65637447656c61746f4461746146756c6c526566696e616e63654d616b65722e5f636173743aa2646970667358221220701109eae87a6ae6c93bd1065eb1ecce8ff375fbbbd6567eda8579f25d1e9e2e64736f6c63430007040033",
  "devdoc": {
    "kind": "dev",
    "methods": {
      "connectorID()": {
        "details": "Connector Details"
      },
      "getDataAndCastMakerToCompound(uint256,address)": {
        "details": "payable to be compatible in conjunction with DSA.cast payable target",
        "params": {
          "_colToken": "vault's col token address .",
          "_vaultId": "Id of the unsafe vault of the client."
        }
      },
      "getDataAndCastMakerToMaker(uint256,uint256,address,string)": {
        "details": "payable to be compatible in conjunction with DSA.cast payable target",
        "params": {
          "_colToken": "vault's col token address .",
          "_colType": "colType of the new vault. example : ETH-B, ETH-A.",
          "_vaultAId": "Id of the unsafe vault of the client of Vault A Collateral.",
          "_vaultBId": "Id of the vault B Collateral of the client."
        }
      }
    },
    "version": 1
  },
  "userdoc": {
    "kind": "user",
    "methods": {
      "getDataAndCastMakerToCompound(uint256,address)": {
        "notice": "Entry Point for DSA.cast DebtBridge from Maker to Compound"
      },
      "getDataAndCastMakerToMaker(uint256,uint256,address,string)": {
        "notice": "Entry Point for DSA.cast DebtBridge from e.g ETH-A to ETH-B"
      }
    },
    "version": 1
  },
  "storageLayout": {
    "storage": [],
    "types": null
  }
}